:020000040800F2
:10000000105400209D0100085F230008851F000890
:100010005D2300082D0500082F41000800000000A6
:100020000000000000000000000000006F23000836
:1000300081050008000000006D23000871230008FE
:10004000B7010008B7010008B7010008B7010008B0
:10005000B7010008B7010008B7010008B7010008A0
:10006000B7010008B7010008B7010008B701000890
:10007000B7010008B7010008B7010008B701000880
:10008000B7010008B7010008B7010008B701000870
:10009000B7010008B7010008B7010008B701000860
:1000A000B7010008B7010008B7010008B701000850
:1000B000B7010008B7010008B7010008B701000840
:1000C000B7010008B7010008B7010008B701000830
:1000D000B7010008B7010008B7010008B701000820
:1000E000B7010008B7010008B7010008B701000810
:1000F000B7010008B7010008B7010008B701000800
:10010000B7010008B7010008B7010008B7010008EF
:10011000B7010008B7010008B7010008B7010008DF
:10012000B7010008B7010008B7010008B7010008CF
:10013000B7010008B7010008B7010008B7010008BF
:10014000B7010008B7010008B701000861230008E3
:10015000B7010008B7010008B7010008B70100089F
:10016000B7010008B7010008B7010008B70100088F
:10017000B7010008B7010008B7010008000000003F
:10018000B7010008B7010008DFF80CD000F0BCF997
:1001900000480047DDF3000810540020064880475F
:1001A00006480047FEE7FEE7FEE7FEE7FEE7FEE75C
:1001B000FEE7FEE7FEE7FEE71124000889010008DC
:1001C0002DE9F05F0546002092469B46884606468C
:1001D000814640241BE0284641464746224600F01F
:1001E000EEF853465A46C01A914110D311461846AC
:1001F000224600F0D5F82D1A67EB01084F4622463B
:100200000120002100F0CCF817EB00094E41201E20
:10021000A4F10104DFDC484631462A464346BDE8E6
:10022000F09F40EA01039B0703D009E008C9121FB1
:1002300008C0042AFAD203E011F8013B00F8013BA0
:10024000521EF9D27047D2B201E000F8012B491ECC
:10025000FBD270470022F6E710B513460A46044663
:100260001946FFF7F0FF204610BD2DE9FE4F81EA49
:10027000030404F0004421F0004100944FF0000B0F
:1002800023F0004350EA01045ED052EA03045BD03D
:10029000C3F30A54C1F30A552C44A4F2F334019475
:1002A000A0FB0254C1F3130141F48011C3F3130303
:1002B00043F4801301FB024400FB034E840A970AB7
:1002C00044EA815447EA8357A4FB076802958D0AE4
:1002D00005FB07854FEA932C04FB0C542705029D70
:1002E0004FEA065847EA1637B5EB08056EEB070CE0
:1002F000870E920E47EA811742EA8312A7FB02019A
:10030000B6EB0B0164EB00042B0D43EA0C335E18D3
:1003100044EB1C50DA465146E7FB0201C5F31304D7
:100320004FEA0B3343EA14534FEA0432019C43EA89
:100330000603A4F10C040294009CCDE900B400F083
:1003400094F803B0BDE8F08F00200146F9E70EB540
:1003500040F2334102910021CDE900110A460B46DB
:1003600000F083F803B000BD01F0004330B421F089
:10037000004150EA010206D00A0DA2F56072C1F3F5
:100380001301002A02DC30BC00207047440F44EA0D
:10039000C104C100E01830BC00EBC25000F01FB82F
:1003A000202A04DB203A00FA02F100207047914035
:1003B000C2F1200320FA03F3194390407047202A2A
:1003C00004DB203A21FA02F00021704721FA02F3FF
:1003D000D040C2F1200291400843194670470029DD
:1003E000A8BF7047401C490008BF20F001007047BB
:1003F00010B4B0FA80FC00FA0CF050EA010404BF1B
:1004000010BC704749B1CCF1200421FA04F411FA70
:100410000CF118BF012121430843A3EB0C01CB1DB4
:100420004FEA00614FEA102042BF002010BC704725
:1004300000EBC35010440029A4BF10BC7047401CFF
:10044000490008BF20F0010010BC704710B5141E11
:1004500073F1000408DA401C41F1000192185B417D
:100460001A4301D120F0010010BD2DE9F04D924654
:100470009B4611B1B1FA81F202E0B0FA80F220326B
:100480009046FFF78DFF04460F4640EA0A0041EA16
:100490000B0153465A46084313D0114653EA010054
:1004A00019D0C8F140025046FFF789FF05460E46B5
:1004B000504659464246FFF773FF084305D00120D6
:1004C00004E020463946BDE8F08D0020054346EAA9
:1004D000E0762C4337430A986305E40AA0EB080052
:1004E0000022FD0A44EA47540A3002D500200146A2
:1004F000E9E7010510196941DDE90845001969417D
:10050000BDE8F04DA2E70000064C074D06E0E068AC
:1005100040F0010394E8070098471034AC42F6D34A
:10052000FFF736FE38A2010858A20108FEE70000D6
:1005300010B500224FEA020100EB8203521CC3F8FF
:1005400084130F2AF8D300224FF400738418521C2E
:1005500084F81C119A42F9D3017041700122827013
:10056000C0F8C413027640238371417680F81C13CF
:1005700080F81D2380F81F1380F81E13002010BD83
:1005800070477047002200F001B8000030B50E4BF4
:10059000054601205C7A002C14D1587A1C54587AF4
:1005A00003EB800045605D7A03F108002A54587A15
:1005B000421C5A72303008703A2048702F208870E0
:1005C000CC70002030BD0000044E002070B5044601
:1005D00000F0F6F80546601C02D004480078044498
:1005E00000F0EEF8401BA042FAD370BD0C000020D2
:1005F0002DE9F84F00224FF0010803254FF00F0EB0
:100600000B6808FA02F42340A3426ED14E68012E13
:1006100005D0022E03D0112E01D0122E12D18668E1
:100620004FEA420C05FA0CF7BE43CF6807FA0CF705
:10063000374387604668A6430C79C4F3001494409E
:1006400034434460C668570005FA07FC8C6826EA04
:100650000C06BC403443C4604C68022C01D0122C00
:1006600013D1D40800EB8404A346D4F82090540797
:100670004FEAD46A0EFA0AF629EA06090E6906FA62
:100680000AF646EA0906CBF8206006680C7926EAE5
:100690000C0604F00304BC40344304604C68E400DE
:1006A00065D5364C266846F480462660246822F0DC
:1006B000030604F480440094314C3444A446D4F836
:1006C00008489607370F0EFA07F6B4432D4EB0428E
:1006D00001D1002624E02C4EB04201D101261FE0BA
:1006E0002A4EB04202D102261AE040E0284EB04223
:1006F00001D1032614E0274EB04201D104260FE0B9
:10070000254EB04201D105260AE0244EB04201D167
:10071000062605E0224EB04201D1072600E0082659
:10072000BE402643CCF808681E4E34684F689C4390
:10073000FF0300D51C4334601A4C241D26684F6803
:100740009E43BF0300D51E432660164E083634680C
:100750004F689C43FF0200D51C433460114E0C3699
:1007600034684F689C43BF0200D51C433460521C60
:10077000102AFFF445AFBDE8F88F0000443802406E
:100780000030014000000240000402400008024026
:10079000000C024000100240001402400018024009
:1007A000001C0240003C0140426931EA020200D1D3
:1007B0000904816170470AB1816170470904FBE750
:1007C00001488068704700000C000020D0F8C0028B
:1007D00002F00DBAD0F8C00202F013BA006803F0BC
:1007E00017BA01EB810100EBC10090F85C00704783
:1007F00001EB810100EBC100C06C704710B50446ED
:1008000090F8B802012809D0012084F8B8022068C5
:1008100003F006FA002084F8B80210BD022010BDD3
:100820002DE9FE430546DDE90B7095F8B842DDF889
:1008300028C0012C1CD001EB81044FF0010905EB0D
:10084000C40485F8B892002684F83D6084F83830F6
:10085000A4F8400084F8391084F83F7002F07F0853
:1008600084F83A805FEA026805D584F83B9004E09A
:100870000220BDE8FE8384F83B6084F83CC0CDF8DC
:1008800000C0CDE90170286803F02CFA85F8B86241
:10089000EFE770472DE9F0030E46DDE906C9DDE913
:1008A000087401EB860100EBC101022581F83B20B1
:1008B00081F83F30BCF1000F0AD081F8425000248B
:1008C0006BB1012B2DD0022B12D0032B16D10FE0D0
:1008D0004FF0030881F8428081F83D40EFE7BCF11A
:1008E000010F0BD152B9CFB9012281F8512003E099
:1008F000A2B191F85020A2B181F84250C1E91197FC
:1009000081F85C40CC6481F8396081F85D40027CFC
:100910000068BDE8F003383103F060BA91F8512067
:10092000E9E781F84240E9E72DE9F0410446006833
:10093000064603F071F901287ED1206803F07DFBA3
:10094000002879D0206803F078FB800203D5216865
:100950004FF400104861206803F06FFBC00203D51C
:1009600021684FF480104861206803F066FB400165
:1009700003D521684FF080604861206803F05DFB7B
:10098000800702D5216802204861206803F055FBEA
:1009900080000ED521684FF000504861D6F8400421
:1009A000C00706D12046FFF715FF0121206803F09C
:1009B00029FB206803F041FBC00102D5204601F06D
:1009C0005FFA206803F039FB000705D5204600F0E8
:1009D000CFF8216808204861206803F02EFB8001D1
:1009E00023D5206803F0F6F9074600254FF00108EB
:1009F00014E000BF05F00F0108FA01F038420CD0F6
:100A000006EB4510D0F80005E9B20004204602D5F7
:100A100000F0D8FF01E001F011F96D1CA068A842B8
:100A2000E8D821684FF000704861206803F005FBAA
:100A3000C043C0060ED400E00CE02068816921F0BC
:100A400010018161204601F065FA2068816941F05A
:100A500010018161BDE8F08170B58AB0040005D055
:100A600094F8B9022568002618B107E001200AB001
:100A700070BD84F8B862204600F028F8032084F89E
:100A8000B902E86BC00500D42661206803F06AF85B
:100A900004F1100128220D466846FFF7C2FB94E8D6
:100AA0000F0003F009F80121206803F0D8FA28228A
:100AB00029466846FFF7B5FB94E80F0003F036FAC5
:100AC000012084F8B9020020D1E7000030B587B0DA
:100AD000044614216846FFF7BDFB2068B0F1A04F23
:100AE00038D11D480024016841F00101016000680F
:100AF0001A4D00F0010005904FF40070CDE900049C
:100B0000694628460294FFF773FD4FF4E0500090C9
:100B10000220CDE901040A20CDE9034069462846B8
:100B2000FFF766FD0C48001D016841F0800101607F
:100B300009481430016841F48041016000680022D6
:100B400000F4804005901146432000F0A1FB4320B3
:100B500000F090FB07B030BD30380240000002408A
:100B6000D0F8C00202F0CEB8D0F8C00202F0CEB881
:100B7000D0F8C00202F080B810B5044690F8B80270
:100B800001280DD0012084F8B802206803F018F87D
:100B90000121206802F0FEFF002084F8B80210BD99
:100BA000022010BD10B5044690F8B802012809D003
:100BB000012084F8B802206803F068FA002084F865
:100BC000B80210BD022010BD70B5040025D094F805
:100BD0003D00002520B984F83C50204600F0B8F8CC
:100BE000242084F83D002068016821F001010160A3
:100BF0002068016841F4004101602068016821F427
:100C00000041016000F0DCFC4D4A6168914201D86E
:100C10004C4900E04C49884201D2012070BD4B494B
:100C20002368B0FBF1F15E6826F03F060E435E607C
:100C30006368934206D94FF4967359434FF47A731D
:100C4000B1FBF3F12368491C1E6A26F03F063143CD
:100C500019626168914210D84900401EB0FBF1F260
:100C6000521CC2F30B02042A01D2042022E0B0FB82
:100C7000F1F0401CC0F30B001CE0A268F2B301EBE2
:100C8000C10303EB0116431EB3FBF6F35B1C43F4F5
:100C900080431B0549D092B301EBC10202EB011165
:100CA000401EB0FBF1F0401CC0F30B0040F480404C
:100CB00040F400402168CA694CF6FF739A43104320
:100CC000C861D4E9071001432068026822F0C0021D
:100CD00011430160D4E9030101432068826848F2AE
:100CE000FF339A4311438160D4E905010843216829
:100CF000CA6822F0FF021043C86001E00EE016E06F
:100D00002068016841F0010101602564202084F819
:100D10003D00256384F83E50002070BD01EB410684
:100D2000431EB3FBF6F35B1CB3E70120C2E701EB04
:100D30004101401EB0FBF1F0401CC0F30B00B7E7CF
:100D4000A086010080841E0000093D0040420F0083
:100D500010B586B0044614216846FFF77BFA1449A3
:100D60002068884221D113480021026842F0020223
:100D70000260006800F0020005904FF410700090CF
:100D8000122001900120CDE902010420049069465F
:100D90000948FFF72DFC07481030016841F40011A5
:100DA0000160006800F40010059006B010BD00005E
:100DB0000054004030380240000402402DE9FF4159
:100DC00004460068816800917749784E4FF04027CB
:100DD000884201D1324600E03A469268019240686A
:100DE0008846029001D1304600E0384640680390C2
:100DF00060684FF00105B0F5007F1CD0D8B19007B6
:100E000005D50398000602D5204601F0FBF80098AE
:100E1000C0070FD0029840067FD521682046CA68D7
:100E2000E16A8B1CE3620A80618E491E6186618ED5
:100E3000002967D071E00098800719D50298000654
:100E400016D5616A20468A1C626222680988D160D0
:100E5000618D491E6185618D51B901684A6822F032
:100E6000A0024A60418E19B980F8415000F0A0F804
:100E70000198C00705D00398400602D5204601F02E
:100E800091F80198400622D5039880061FD5216865
:100E9000414501D1304600E03846406820F060010D
:100EA00001D1304600E0384641602068416821F0B9
:100EB000A00141602068C1688068019084F84150B9
:100EC000606C40F002006064204600F072F8009808
:100ED000000767D50298800664D52068416821F034
:100EE000A00141602168414501D1304600E038460B
:100EF000406820F0600000D03E4670602068806846
:100F0000009043E001684A6822F060024A60418D27
:100F100019B980F8415000F04BF8009840061ED5F2
:100F2000029880061BD52068416821F0600141606D
:100F30002168414501D1304600E03846406820F044
:100F4000A00101D1304600E03846416084F84150AC
:100F5000606C40F002006064204600F02AF80198BE
:100F600000071FD5039880061CD52168414501D193
:100F7000304600E03846406820F0A00000D03E46F1
:100F800070602068416821F06001416084F8415040
:100F9000606C40F00400606404B02046BDE8F0419D
:100FA00000F007B8BDE8FF81003800400034004081
:100FB000704770472DE9F047040005D094F84100D0
:100FC0004FF0000818B109E00120BDE8F08784F86F
:100FD000408051486063204600F0A6F8022684F85D
:100FE00041602068C16940F6BF77B943C16120689C
:100FF000066260694FF4007902282FD0E06870B172
:101000002025A068202800D86D00012000F072F98A
:10101000216949451FD1E16819B1A90002E01025F5
:10102000EFE7E900B0FBF1F000EB80006169400000
:10103000B0FBF1F0401D0A21B0FBF1F000F001011E
:10104000401A40080902821EFE2A09D3606C40F053
:1010500010006064B8E7B0FBF5F0E5E7022000217E
:1010600022690843024320680262D4E9010108436F
:10107000A269E168114308432168CA69BA43104371
:1010800040F40060C861206A01283AD123486063B7
:1010900023482168234A4FF04023814201D1114661
:1010A00000E01946C96921EA070101D1154600E0AF
:1010B0001D46E9612168814201D1114600E01946CF
:1010C0000E622568854201D1114600E01946C969C2
:1010D0008EB2616849451BD0D1B100212789B4F88F
:1010E0000CC047EA0C07B4F818C04CEA010C47EAF8
:1010F0000C07B9B2314341F40061854200D01A4671
:10110000D161C4F84480012084F8410000205CE7EC
:101110004FF48071E2E7000065200008BD0D000873
:10112000003800400034004070B586B004461421F9
:101130006846FFF78FF81C492068884232D11B4867
:101140000024016841F400410160006800F400409F
:10115000059016481038016841F0010101600168EE
:1011600001F001010591016841F00401016000688E
:10117000022500F00400059010200090CDE90154F4
:101180000626CDE9034669460948FFF731FA4FF4D0
:10119000A4500090CDE90154CDE9034669460548C5
:1011A000FFF726FA06B070BD003C00404038024010
:1011B0000000024000080240704770470248816802
:1011C00002781144816070470C0000200B4810B574
:1011D000016841F400710160016841F480610160BF
:1011E000016841F480710160032000F071F8002073
:1011F00000F006F800F024F8002010BD003C02408A
:1012000070B50D4D04464FF47A712878B1FBF0F0BB
:101210000A490968B1FBF0F000F0C0FB48B9102C96
:1012200007D200222146501E00F032F800206C60E8
:1012300070BD012070BD00000C00002018000020CF
:101240000B4882B0016841F480410160006800F4FD
:10125000804000900648001F016841F08051016005
:10126000006800F080500090072002B000F030B815
:1012700044380240002809DB00F01F0201219140A0
:101280004009800000F1E020C0F800117047000024
:10129000F0B40E4B1B680C46C3F30223C3F10705E1
:1012A000042D00D90425191D072901D2002300E0CF
:1012B000DB1E012606FA05F1491E214099409E4099
:1012C000761E16403143F0BC02F046BF0CED00E044
:1012D000064900F0070208684FF6FF03184040EA8D
:1012E0000220034A10430860704700000CED00E044
:1012F0000000FA0501460020012907D110490968BC
:1013000011F4000103D0012900D10E4870470C48A8
:10131000001F01680068490200F03F0001D50A493A
:1013200000E00A49064AB1FBF0F07C321168C1F3D3
:10133000881141431068C0F30270B1FBF0F07047B0
:10134000083802400080BB0000127A000024F4003C
:101350002DE9F843054600684FF00109C1074FF039
:10136000000601D1400727D5DFF80C81C8F8686076
:10137000FFF726FA0746414C05E000BFFFF720FAC9
:10138000C01B022857D820680001F7D46868810183
:10139000287A41EA0070394984310860C8F86890B9
:1013A000FFF70EFA074604E0FFF70AFAC01B02280F
:1013B00041D820680001F7D52878800752D52F48FA
:1013C0004030016841F08051016000682C4C00F011
:1013D00080500090206840F480702060FFF7F0F9A2
:1013E000074604E0FFF7ECF9C01B022823D8206869
:1013F000C005F7D5214C7034206810F4407020D01F
:10140000A98901F4407181421BD020681D4920F454
:101410004070C1F800900E6020602068C00710D0B6
:10142000FFF7CEF9064641F2883707E0FFF7C8F923
:10143000801BB84202D90320BDE8F88320688007EA
:10144000F4D5E9680D48C1F301220830032A0BD016
:10145000016821F4F81101602068A989C1F30B012A
:10146000084320600020E7E70268074B22F4F812E7
:1014700019400A430260EFE700004742003802408B
:1014800000700040400E4742FFFCFF0F2DE9F0477F
:101490000E46050065D0DFF81481D8F80000F7B2D9
:1014A00000F00F00B04207D288F80070D8F80000B2
:1014B00000F00F00B04254D128683D4C810712D58E
:1014C000400703D5206840F4E050206028780007EA
:1014D00003D5206840F4604020602068A96820F0AF
:1014E000F000084320602878C0072DD03049686894
:1014F0000839012812D0022813D0032811D0096816
:10150000890700292DDA216821F0030101432160B8
:10151000FFF756F9814641F2883A0EE009688903DF
:10152000EFE709688901ECE7FFF74AF9A0EB090149
:10153000514502D90320BDE8F0872068696800F0B2
:101540000C00B0EB810FEFD1D8F80010404601F04D
:101550000F01B14207D90770006800F00F00B042D8
:1015600001D00120E7E72878400705D52068E96821
:1015700020F4E050084320602878000706D5206852
:10158000296920F4604040EAC100206000F028F89A
:101590002168084AC1F30311515CC840064908603C
:1015A00006480068FFF72CFE0020C4E7003C02401C
:1015B000083802400C8101081800002010000020AB
:1015C0000448054900680968044AC1F38221515C56
:1015D000C840704718000020083802401C810108EC
:1015E000154810B5006810F00C02144813D04110D3
:1015F000042A0FD0082A0ED10F4C241F226823681A
:1016000002F03F025B0207D52068C0F38810A0FB00
:10161000010106E0084610BD2168C1F38811A1FB55
:1016200000010023FEF7CCFD2168C1F30141491CF4
:101630004900B0FBF1F010BD083802400024F4006E
:101640002DE9F84F04006ED02078DFF83C93C007F6
:10165000A9F104054AD009F104000168C1F3810130
:10166000012908D00068C0F3810002280AD1D9F806
:101670000000400206D52868800337D5606800283E
:10168000E1D033E06068B0F5803F10D0B0F5A02F16
:10169000286810D020F480302860286820F480204A
:1016A00028606068A8B1FFF78BF806460DE028684F
:1016B00040F48030F4E740F480202860F7E700BF72
:1016C000FFF77EF8801B642873D828688003F7D55D
:1016D0000CE0FFF775F8064605E000BFFFF770F86D
:1016E000801B6428F0D828688003F7D42078DFF8BE
:1016F0009C8280074FF0000A3ED5A348001D016878
:1017000011F00C0F08D00068C0F3810002280BD143
:10171000D9F80000400207D42868800716D5E06891
:10172000012800D112E02BE1E068B8B10120C8F82F
:101730000000FFF745F8064605E000BFFFF740F858
:10174000801B0228C0D828688007F7D5286821693F
:1017500020F0F80040EAC10028600DE0C8F800A0C1
:10176000FFF72EF8064604E0FFF72AF8801B022850
:101770001FD828688007F7D42078000722D5824E2A
:1017800083486169703671B101210160FFF718F873
:10179000074604E0FFF714F8C01B022809D8306898
:1017A0008007F7D50EE0C0F800A0FFF709F807465C
:1017B00005E082E0FFF704F8C01B02287DD83068FE
:1017C0008007F7D42078400768D5DFF8BCB1002740
:1017D0000BF13C0BDBF80000C0000BD4DBF8001071
:1017E00041F08051CBF80010DBF80000012700F039
:1017F00080500090674E3068C00510D4306840F4C7
:1018000080703060FEF7DCFF009005E0FEF7D8FF47
:101810000099401A022850D83068C005F6D55A4EB3
:10182000A0686C3601280FD00528306810D020F051
:1018300001003060306820F004003060A068B8B16A
:10184000FEF7BEFF00900FE0306840F00100F4E7C3
:1018500040F004003060F7E7FEF7B2FF0099411A4C
:1018600041F28830814266D830688007F4D50EE0B6
:10187000FEF7A6FF009007E0FEF7A2FF0099411ACD
:1018800041F28830814256D830688007F4D42FB1B5
:10189000DBF8001021F08051CBF80010A069C8B32C
:1018A0003949091D0968C1F3810102294AD002287A
:1018B000504607D0C8F8600000E03CE0FEF780FF2B
:1018C00004463BE04746C8F86000FEF779FF06464D
:1018D00005E000BFFEF774FF801B02282BD82868A4
:1018E0008001F7D4D4E907010843A16A2A4A4908CC
:1018F00002EB0141626A41EA8211084394F82C101C
:1019000040EA0161C9F8001001203866FEF758FF6F
:10191000044606E036E000BFFEF752FF001B022837
:1019200009D828688001F7D52CE000BFFEF748FFF2
:10193000001B022802D90320BDE8F88F2868800127
:10194000F4D41FE00128F7D0D9F80000E26900F4D0
:101950008001914214D1226A00F03F0191420FD1DF
:1019600047F6C071626A0140914209D1A26A00F44F
:101970004031914204D1E16A00F07060884201D0A8
:101980000120D9E70020D7E7043802400000474291
:10199000800E4742007000400000FFFF10B5401E5F
:1019A000B0F1807F01D3012010BD4FF0E0246061D1
:1019B0000F21601702F0D0FB0020A06107202061FA
:1019C000002010BD2DE9F05F074600680E4600EBD1
:1019D0004114D4F808054FF00409420701EB8600D2
:1019E0004FF0050B4FF0100807EBC00508D5C4F801
:1019F0000895D4F80C0540F00200C4F80C0542E04C
:101A0000D4F80805C0050DD54FF48070C4F808055A
:101A1000072085F85D00D4F80C0540F00200C4F8FA
:101A20000C0517E0D4F80805800601D5202028E031
:101A3000D4F808054FF0080A00070FD5D4F80C05B4
:101A400040F00200C4F80C0585F85DB0C4F80885C4
:101A5000C4F808A5386802F0E3F814E0D4F80805E3
:101A6000400510D5D4F80C0540F00200C4F80C0570
:101A7000386802F0D5F8C4F8088585F85DA04FF401
:101A80008060C4F80805D4F8080580050ED5D4F8A0
:101A90000C0540F00200C4F80C05314604F5A164C1
:101AA000386802F0BDF84FF40070A4E0D4F80805DF
:101AB0004FF00001C0074FF0010242D0386930B149
:101AC000A86CD4F81035C3F31203C01AE86485F883
:101AD0005D20A965C4F8082595F83F0030B10228BB
:101AE00004D0032811D0012818D023E0D4F80C0525
:101AF00040F00200C4F80C05314604F5A1643868D2
:101B000002F08EF8C4F8008014E0D4F8000540F02C
:101B10000050C4F8000585F85C2007E085F85C20DB
:101B200095F8500080F0010085F8500031463846A5
:101B3000FEF7AFFE15F8500F80F001002870BDE8E9
:101B4000F09FD4F8080580073ED5D4F80C0520F0A6
:101B50000200C4F80C0595F85D00022301280AD0A4
:101B600005280BD006280CD008280AD003281AD044
:101B700007281BD01FE085F85C201CE085F85CB0CE
:101B800019E0A86D401CA86503280CD9A96585F843
:101B90005C9000BFD4F8000520F0804040F0004089
:101BA000C4F8000507E085F85C30F3E7A86D401C39
:101BB000A86585F85C90C4F8083595F85C20314636
:101BC0003846FEF766FEBAE7D4F80805000614D5D5
:101BD000D4F80C0540F00200C4F80C05A86D31469D
:101BE000401CA865062085F85D0004F5A1643868EE
:101BF00002F016F880202060A1E7D4F80805C0069E
:101C00009DD595F83F00032803D020B1022802D0CB
:101C100011E0A96505E0A965386960B9032085F878
:101C20005D00D4F80C0540F00200C4F80C05314604
:101C3000386801F0F5FFC4F8088580E72DE9F04722
:101C4000026802EB4114D4F808254FF00403520750
:101C500009D5C4F80835D4F80C0540F00200C4F8E2
:101C60000C05BDE8F087D4F8082501EB8105960640
:101C70004FF0000200EBC5054FF0020C15D52023F4
:101C8000C4F8083595F83D30012BEAD185F83D20A0
:101C900085F85CC0D4F80C2542F00202C4F80C258B
:101CA0000068BDE8F04701F0BBBFD4F808657706CF
:101CB0004FF0010611D585F85D3085F83D60AA65C5
:101CC000D4F80C2542F00202C4F80C25006804F593
:101CD000A16401F0A5FF402010E0D4F80875BF050D
:101CE0000ED5D4F80C2542F00202C4F80C25006889
:101CF00004F5A16401F094FF4FF400702060B0E798
:101D0000D4F80875FF070FD0AA65D4F80C2542F067
:101D10000202C4F80C25006804F5A16401F080FFFC
:101D2000266085F85D609CE7D4F808754FF00509DA
:101D30005FEA07784FF008070DD5C4F80875D4F8A6
:101D40000C2542F00202C4F80C25006801F068FF7F
:101D500085F85D9085E7D4F808854FF0100A5FEAB2
:101D6000C86818D5AA65032285F85D2095F83D203E
:101D700022B995F83C200AB985F83D60D4F80C25C5
:101D800042F00202C4F80C25006804F5A16401F0D9
:101D900047FF5046B2E7D4F808855FEA08680FD5D8
:101DA000D4F80C2542F00202C4F80C25006804F5B2
:101DB000A16401F035FF062085F85D0080209DE7D5
:101DC000D4F808855FEA485812D5D4F80C2542F0BB
:101DD0000202C4F80C25006804F5A16401F020FF9C
:101DE000C4F800A04FF48060206085F85D7038E78B
:101DF000D4F80875BF0796D5D4F80C7527F00207FC
:101E0000C4F80C7595F85D70012F0AD0032F17D018
:101E1000042F15D0052F16D0062F17D0082F15D058
:101E200027E085F85C6095F83F20022A01D0032A5C
:101E30001FD195F8512082F0010285F8512018E059
:101E400085F85CC015E085F85C9012E0AE6D761CFC
:101E5000AE65032E03D9AA6585F85C3001E085F8EC
:101E60005CC0D4F8002522F0804242F00042C4F861
:101E70000025C4F808C595F85C20FEF70AFDF0E6D9
:101E80007CB504680546D4F840040190D4F84004B9
:101E900020F02E0000900198800709D50198C00716
:101EA00002D02846FEF792FC009840F00200009015
:101EB0000198000724D5009840F008000090019890
:101EC00040071AD5A869022803D0E86801280CD079
:101ED0000FE00198C0F341400228286803D0012197
:101EE00002F090F805E00221FAE74EF66020C4F80F
:101EF00004042846FEF738FE02E02846FEF730FECE
:101F000001988006009802D540F020000090C4F8A7
:101F100040047CBD2DE9F041024600680646016A96
:101F2000C1F3434301F00F07C1F30A14022B25D17B
:101F3000002C23D007EB870102EBC105696C002957
:101F40001CD0224602F07DF8686C20446864E86C7E
:101F50002044E86406EB4710D0F81015084A1142F7
:101F60000CD0D0F8001521F0804141F00041C0F8BC
:101F7000001515F8500F80F001002870BDE8F081C1
:101F80000000F81F064D4FF480544FF47A76214636
:101F90002846FEF709FC3046FEF718FBF7E700007D
:101FA000000C024070B515490268154B4FF04024F3
:101FB0008A4201D11A4600E02246D568C26A961CC0
:101FC000C6621580428E521E4286428E002A14D16D
:101FD00002688A4201D1194600E02146496821F091
:101FE000600100D023465960418D002905D14FF092
:101FF000010180F84110FEF7DBFF70BD00380040A2
:102000000034004070B5416A144B8A1C4262056876
:102010000988134A4FF040249D4201D1154600E043
:102020002546E960418D491E4185418D002914D125
:102030000168994201D1114600E02146496821F02A
:10204000A00100D022465160418E002905D14FF0F9
:10205000010180F84110FEF7ABFF70BD0038004071
:10206000003400407CB5016804468868009094F80C
:1020700041000125042834D10098C00718D04868D1
:10208000C043400614D4C9682046E26A1180E16A60
:10209000891CE162618E491E6186618E41B90168C9
:1020A0004A6822F060024A6080F84150FFF784F8E5
:1020B0000098400615D520684168C943890610D4A8
:1020C000416821F0600141602068C168806801902A
:1020D00084F84150606C40F0020060642046FEF7D6
:1020E00068FF94F84100032834D10098800719D57F
:1020F00021684868C043000614D4626A20461288EA
:10210000CA60616A891C6162618D491E6185618D49
:1021100041B901684A6822F0A0024A6080F8415043
:10212000FFF74BF80098000714D520684168C943B1
:1021300089060FD4416821F0A001416020688068C1
:10214000009084F84150606C40F0040060642046C8
:10215000FEF72FFF7CBD000020B1002201210248C4
:10216000FEF729BB0122F9E70008024010B5044937
:102170000448FEF707FA0249491E087010BD000026
:10218000010000207C2001082DE9F04F87B01421C8
:102190006846FEF75FF859480024016841F01001D5
:1021A0000160016801F010010591016841F004012E
:1021B0000160016801F004010591016841F08001AE
:1021C0000160016801F080010591016841F00101A1
:1021D0000160016801F001010591016841F002010F
:1021E0000160016801F002010591016841F00801F8
:1021F00001600068424E00F008004FF6FF75059040
:10220000002229463046FEF7D6FADFF8F8A0012270
:1022100011465046FEF7CFFADFF8ECB04FF478489D
:10222000002241465846FEF7C6FA4FF21009002236
:1022300049463648FEF7BFFA0320CDE90240009533
:102240000125694601953046FEF7D2F90095CDE9A2
:102250000154694650460394FEF7CAF908200090DD
:102260000226CDE901640527CDE9034769465046BA
:10227000FEF7BEF926480095CDE90104DFF894A0E9
:1022800069465046FEF7B4F9E0200090CDE90164BC
:10229000CDE9034769465046FEF7AAF90420CDE987
:1022A0000004694658460294FEF7A2F9A80200907D
:1022B000CDE90164CDE9034769465846FEF798F930
:1022C000CDF80080CDE90154694658460394FEF7E5
:1022D0008FF9CDF80090CDE9015469460B4803947D
:1022E000FEF786F92020CDE90004694607480294EC
:1022F000FEF77EF907B0BDE8F08F000030380240ED
:10230000001002400008024000040240000C02409D
:1023100000001210000002407047000010B50122BA
:102320000B490C4800F03BFC08B1FEF72AF90A49BA
:10233000084801F005FB08B1FEF723F9054801F054
:1023400018FB002803D0BDE81040FEF71AB910BDF5
:1023500089390008E00000201C000020FEE77047DB
:102360000148FEF7E1BA0000B8040020704770474A
:10237000FEF724BF70B596B030216846FDF76AFFBE
:1023800014210CA8FDF766FF00251F481195129532
:1023900013951495016841F080510160006800F0C8
:1023A000805015901948016841F48041016000682F
:1023B000012600F4804015903004CDE9006002242D
:1023C0008001CDE90640082008904FF4A870CDE9BF
:1023D000090407200B906846FFF732F90CA90F207B
:1023E00081E831004FF4A0500F90E00210900521D9
:1023F0000CA8FFF74BF8C020CDE91204119611A8E4
:10240000FEF7A6FF16B070BD4038024000700040D5
:102410000548016841F47001016003494FF0006014
:10242000803908607047000088ED00E010B5704CFE
:10243000206840F000602060206840F40040206088
:10244000206840F480502060206840F400502060F4
:10245000206840F4804020606420FEF7B7F82068D0
:1024600040F400602060C820FEF7B0F8012000F0C2
:1024700037F9012000F034F9012000F031F9E020B3
:1024800000F02EF9012000F051F90120FEF79EF82E
:10249000E02000F025F9032000F048F9F02000F0DA
:1024A0001FF9022000F042F9362000F019F98A20C5
:1024B00000F03CF9E22000F013F94E2000F036F96C
:1024C000002000F033F9042000F030F9B02000F0D3
:1024D00007F9202000F02AF9002000F027F9012058
:1024E00000F024F9DF2000F021F9012000F01EF9AE
:1024F0000F2000F01BF91B2000F018F9B42000F0A9
:10250000EFF8202000F012F9AF2000F00FF90020C2
:1025100000F00CF9A32000F009F9072000F006F9FB
:10252000002000F003F9002000F000F9002000F086
:10253000FDF8B62000F0D4F8012000F0F7F8EF2005
:1025400000F0F4F8002000F0F1F8042000F0EEF8BC
:10255000012000F0EBF8002000F0E8F8002000F087
:10256000E5F83A2000F0BCF8602000F0DFF8E62043
:1025700000F0B6F8022000F0D9F8EF2000F0D6F80D
:10258000FF2000F0D3F82A2000F0AAF8002000F085
:10259000CDF8002000F0CAF8012000F0C7F8DF20D5
:1025A00000F0C4F82B2000F09BF8002000F0BEF8EB
:1025B000002000F0BBF8012000F0B8F80F2000F078
:1025C000B5F8292000F08CF80A20FDF7FFFF2C2039
:1025D00000F086F8074C0023FF2000F05FF85B1C3A
:1025E000A342F9D3BDE810402C2000F079B80000D8
:1025F0001804024000FA050010B5002140F2DB1279
:1026000010FB02F0084A40F2B63302EB4000074AE2
:102610004418A4F5B83494F80A485454491C89B2B3
:102620009942F5D310BD000090200108EC0B00206A
:1026300000B503462A2000F053F85888000A00F03D
:1026400075F8987800F072F8588819890844401E87
:10265000C0F3072000F06AF89878197A0844401E01
:10266000C0B200F063F82B2000F03AF8188899887F
:10267000401A401CC0F3072000F058F81878197968
:10268000401A401CC0B200F051F81888000A00F04F
:102690004DF818785DF804EB00F048B80E490A6868
:1026A00042F080520A600A6842F400420A600088E0
:1026B00040BAC24340EA0240084A9061086840F0CC
:1026C00080400860086840F480400860086840F472
:1026D000805008607047000018040240001002405B
:1026E0003221491E11F0FF01FBD10E490A6842F068
:1026F00080520A600A6842F000420A60C243D2B2C5
:1027000040EA0240084A9061086840F08040086052
:10271000086840F480400860086840F48050086011
:102720007047000018040240001002400D490A687A
:1027300042F080520A600A6842F400420A60C243D2
:10274000D2B240EA0240084A9061086840F08040F6
:102750000860086840F480400860086840F48050D1
:1027600008607047180402400010024070B5064629
:102770002DED028BB0EE408A324838600D4632486B
:102780000CF0F6FD314C4FF4F472502120602046DD
:1027900006F01AFC3046FFF72FFF40F2F62204F253
:1027A0006C4120460CF0A6FC012120460CF0D7FC21
:1027B000B2EE040A0A2028EE000ABCEEC00A84ED3C
:1027C0000B0A206394ED070AB8EE400A20EE080ACF
:1027D000BCEEC00A10EE100AA86094ED080AB8EE2C
:1027E000400A20EE080ABCEEC00A10EE100A68602B
:1027F0002846FFF71DFF20460CF06DFD2C20FFF74B
:102800006FFF104E0FE00122394610480CF0CFFC4C
:10281000002303E0F018FFF741FF9B1CA86800EBC2
:1028200040009842F6D8616FD4F88C008842EAD311
:10283000064806F0D2FEBDEC028B0448BDE87040AD
:1028400006F074BE8446002068090020800700203E
:1028500010B500224FF6FF7300EB8204B4F88443F6
:1028600024040BD49A4207D002F00F0300EB83003C
:1028700041F40041C0F88413D0B210BD521CD2B252
:102880000B2AE9D31A46F7E77FB51C46012501AEAE
:102890000023009586E80E0002232A46214600F018
:1028A0005EFA04B0002070BD7FB51D4690F81D3360
:1028B000089C03B100240123CDE90031CDE90224B5
:1028C00002230022294600F04AFA04B0002070BD1D
:1028D00010B500F083F9002010BD8278012A07D1DD
:1028E0000222027401224274002242828182C28248
:1028F0000022114600F00FB87FB51C46012501AE3D
:102900000023009586E80E002A46214600F027FAAB
:1029100004B0002070BD70B504460120A3780546C0
:10292000012B0BD0022B08D1204600F06FF858B1D4
:10293000032809D0022800D1A57070BDA160A28132
:1029400025760221A17070BDA5700021217670BD91
:102950007FB51D4690F81D33089C03B10024012368
:10296000CDE90031CDE9022400231A46294600F0C2
:10297000F6F904B0002070BD1FB500231446CDE960
:1029800000310822CDE902231A46214600F0E7F97A
:1029900004B0002010BD000070B50546002005F50C
:1029A0004E7500BF00EB800404EBC00405EB44044B
:1029B000E67B0A348E4201D0FF2909D1A6799642DE
:1029C00001D0FF2A04D1E4799C4206D0FF2B04D029
:1029D000401CC0B20228E5D3FF2070BD0B2907D2EE
:1029E00000EB8100B0F88413C1F30E01C0F884132A
:1029F0000020704701004FF0000004D0012901D0F1
:102A0000022901D002207047012070472DE9F84FBC
:102A10000125017E04460B26092728464FF00708AA
:102A20004FF0050A4FF00D090C2919D2DFE801F02B
:102A3000B4060E26313C48606B7C899A627904F1B9
:102A400010012046FFF798FF022012E0617920462E
:102A500000F00EF9012804D0042871D002287FD09C
:102A60009AE0207CE18A00F0800021B180283AD1F0
:102A70000320207690E0802814D02EE0D4F8C40300
:102A8000E0812379A2892046A168FFF735FF042061
:102A9000EFE72179204600F0EBF8012802D0052865
:102AA00040D056E0277677E000906379A2892046EF
:102AB000A168FFF74DFFD4F8C403E0810620D8E7F2
:102AC0006179204600F0D4F8012806D0052807D007
:102AD000022808D0042809D05EE084F818805BE062
:102AE0000C2020761EE084F818A055E0267652E0EF
:102AF0000022237911462046FFF7FEFED4F8C403D6
:102B0000E0810820B5E72179204600F0B1F80128DE
:102B100004D0042824D0052804D03DE084F818907F
:102B2000002539E0032537E0009000226379114643
:102B30002046FFF70DFFD4F8C403E0810A2098E790
:102B40000EE06179204600F093F8012804D00228B5
:102B5000A8D0042804D01FE0002584F818901BE0BA
:102B6000267619E0617E491CC9B26176022902D835
:102B70002076A07010E0D4F8D42306212046904798
:102B80000025657661792046FFF728FF21792046E8
:102B9000FFF724FF257002252846BDE8F88F70B5A1
:102BA0000E46040018D084F8CC230025C4F87C53CA
:102BB000C4F8805304F54874FDF7BAFCE57025703D
:102BC0006570A570A4F548740EB1C4F8D4632046AE
:102BD00000F062F8002070BD022070BD10B5D0F882
:102BE000D003FDF70BFEBDE81040FFF703BF012146
:102BF00080F82013002180F8211380F82213084662
:102C0000704710B50446012084F82103002084F8A1
:102C1000200384F82303204600F098F82179204609
:102C2000FFF7DCFE61792046FFF7D8FE002010BDDB
:102C300010B590F8CC03012802D10846FFF78CFAB2
:102C4000C820FDF7C3FC002010BDD0F8D003FDF76D
:102C5000CFBDD0F8D00301EB810100EBC10090F8AB
:102C60003B1011B190F85000704790F85100704738
:102C7000D0F8D003FDF7B5BDD0F8C413491CC0F897
:102C8000C41301780B2905D1D0F87C13002901D099
:102C9000896908477047000010B5044690F8CC03D6
:102CA00001281CD10F484FF0A0410022C0F8C042BB
:102CB000C4F8D0030160082181600121C0E903123A
:102CC0000221C0E90612FDF7C7FE08B1FDF759FC65
:102CD0000448FDF783FD0146204600F01BF8002064
:102CE00010BD0000B8040020FEB508AF97E87000E2
:102CF0008DE87000D0F8D003FDF792FDBDE8FE40EE
:102D0000FFF778BE002180F823137047012180F877
:102D100023137047C0F8C4137047D0F8D00301EBF9
:102D2000810100EBC10090F83B1011B180F85020F8
:102D300001E080F851200020704710B5D0F8D00392
:102D4000FDF71AFFBDE81040FFF754BE10B5D0F8EC
:102D5000D003FDF727FFBDE81040FFF74BBE2DE97C
:102D6000FF410DF1280898E8F0008DE8F000D0F858
:102D7000D003FDF78FFD04B0BDE8F041FFF73ABE88
:102D800003460220D3F87C13C9692AB1012A05D170
:102D900089791846FFF7A1BDC979FAE770470000A5
:102DA000D0F87C030549C069416505498165012169
:102DB00000F8501F817000207047000055534243B7
:102DC000504030202DE9F84F0746D0F87C0301260B
:102DD0003546C4694FF00B0A4FF00A0B94F85000C7
:102DE0004FF009094FF007080C2845D2DFE800F042
:102DF000D20611252E4852757EA7AFCB84F86110FC
:102E0000022084F85000009563791F2204F15401D8
:102E100059E061793846FFF72BFF012802D00228DC
:102E20007ED03FE0E06D002829D094F860000006D5
:102E300001D503204BE0052049E02379628938461B
:102E4000D4F88C10FFF720FD042040E021793846AB
:102E5000FFF70EFF01284FD16289E06D90420CD937
:102E6000D4F88C10801A1144C4F88C10E0656BD033
:102E700023793846FFF708FD8CE00020E06563E029
:102E80000095637922893846D4F88C10FFF70CFD41
:102E900006201CE061793846FFF7EAFE012804D0DD
:102EA0000228C8D0052815D074E02289E06D904230
:102EB000E3D9D4F88C10801A1144C4F88C10E06562
:102EC00042D0009563793846FFF7EEFC62E084F863
:102ED00050005FE084F850B05CE023790D2204F1EB
:102EE00078013846FFF7D0FC0820F0E72179384612
:102EF000FFF7BEFE012802D005281DD04AE004F8E5
:102F0000505F3846A570D7F87C13CC692179FFF75C
:102F10009CFE0D280CD12149A06F884208D100E009
:102F200036E0A16DE06F884202D194F8840008B1C8
:102F300002262FE000262DE084F850902AE000229F
:102F40003846FFF71DFF38B984F8508022E001228F
:102F50003846FFF715FF10B1042811D01AE0617947
:102F60003846FFF776FEC0F10100C2B261793846FB
:102F7000FFF7D3FE217900223846FFF7CEFEDBE7CC
:102F800084F850A006E0384600F015F8060001D19C
:102F900084F850503046BDE8F88F00005553425336
:102FA000A1220274FE224274002242828282012205
:102FB000C282FFF7B0BC21210174FF2141740021BE
:102FC00041828182C1820A46FFF7A5BC70B5D0F864
:102FD0007C130125CC69A17B21B1022902D00329F0
:102FE0002ED127E02146FFF7DBFF0021054603280D
:102FF00001D01DB124E02170002504E020780228D2
:1030000001D9022001E02078401C2070002002231A
:103010000CE000BF00EB800202EBC00204EB820276
:10302000401C82F8923082F8C110C0B222788242ED
:10303000F0D805E00021FFF750FC08B9E07BA07351
:10304000284670BD10B51446D0F87C230078D369AB
:103050000B2801D0022010BD01EB810000EBC10064
:1030600003EB8001342220469031FDF7DAF800208E
:1030700010BD70B50546D0F87C030026C46961799F
:1030800039B12846FFF724FC61792846FFF7A6FCF2
:103090006671217939B12846FFF71AFC2179284653
:1030A000FFF79CFC2671D5F87C03C06920B104F0C1
:1030B00017F9D5F87C03C661002070BDFEB5054642
:1030C000D0F87C035023062201792846FFF764FCE0
:1030D0000646FF2823D0022E21D20146284600F0C2
:1030E0003DFCE0B94FF4807738460CF02BFAD5F868
:1030F0007C130446C861200011D03946FDF7AAF8B8
:1031000006EB860000EBC60005EB400090F84E137E
:103110000A0606D5E171B0F85013618105E002207E
:10312000FEBDA171B0F85013218190F856130A0624
:1031300004D5E171B0F85803608103E0A171B0F8E3
:1031400058032081002020736073A073A179284662
:10315000FFF77EFB6071E1792846FFF779FB20716C
:103160002846FFF71DFE208995F81D1302260091C1
:10317000CDE9016095F81C33A2796179284600F009
:10318000D5FB608995F81D130091CDE9016095F894
:103190001C33E2792179284600F0C8FB217900220E
:1031A0002846FFF7BAFD617900222846FFF7B5FDF2
:1031B0000020FEBD2DE9F0470746D0F87C034FF014
:1031C000010AC469207B10B101282DD12CE1B4F88B
:1031D000F800217801254FF0000888426FD200EBFB
:1031E000800101EBC00004EB8000022680F89150C2
:1031F000B4F8F8004FF0050900EB800101EBC001C5
:1032000004EB810292F8901009290DD2DFE801F059
:10321000050C1F880DB10C0CFF00042082F89000F3
:10322000D7F8C403C4F8FC0000E1C1B238469F32AD
:1032300000F08CF940B9B4F8F80000EB800101EB24
:10324000C00004EB8000B6E002287DD099E0C1B256
:10325000384600F0ABFA10B1022831D091E0B4F852
:10326000F80000EB800101EBC00004EB800090F857
:10327000921011B180F8C15001E080F8C180B4F81B
:10328000F820032002EB820101EBC20104EB810173
:1032900081F89000B4F8F81001EB810202EBC10153
:1032A00004EB810181F89180B4F8F81001EB810200
:1032B00002EBC10104EB810181F89280B6E0AAE043
:1032C000B4F8F80000EB800101EBC00004EB8000D3
:1032D00090F89210022902D080F8C15001E080F8E5
:1032E000C180B4F8F81001EB810202EBC10104EBDC
:1032F000810181F89090B4F8F80000EB800101EBB7
:10330000C00004EB800080F89150B4F8F80000EBA6
:10331000800101EBC00004EB800080F8926085E042
:10332000C1B23846943200F0BBF900288CD1B4F811
:10333000F80000EB800101EBC00004EB800080F896
:103340009050B4F8F81000E008E001EB810202EBC5
:10335000C10104EB810181F8918031E0B4F8F810EB
:1033600001EB810202EBC10104EB810181F8909035
:103370005CE0C1B238469C3200F0CFF920B102289F
:1033800023D004282DD051E0B4F8F80000EB8001E0
:1033900001EBC00004EB800090F89C10062901D0DE
:1033A00002290BD1D7F8C413D4F8FC20891A42F2B1
:1033B0001072914202D280F8906037E080F890500D
:1033C00034F8F80F401C208030E0B4F8F8100820E2
:1033D00001EB810202EBC10104EB810181F8900055
:1033E00024E0B4F8F80000EB800101EBC00004EB2E
:1033F000800080F89050B4F8F80000EB800101EBF9
:10340000C00004EB800080F891600FE0FFE7401CF3
:10341000A4F8F8000AE0A4F8F8802573D7F8D423BC
:1034200002213846904701E04FF0000A5046BDE8BF
:10343000F08700002DE9F843D0F87C2301EB8103ED
:1034400003EBC103D269012502EB8304082794F83A
:1034500090302E46052B22D000224FF00508062B77
:1034600002D0072B2AD10CE0002300921A4600F06C
:10347000D7F80BE002280FD018E000BF84F8907056
:103480001BE0002300921A4600F0B6F90028F1D1A3
:1034900084F89060002511E084F890800EE004F13B
:1034A0009C0200F03AF920B1022807D00428E5D0A8
:1034B00004E004F8906F0220607002252846BDE801
:1034C000F8832DE9F8430446D0F87C03089E0F46A4
:1034D000C56994F8200360B120780B2809D107EB67
:1034E000870000EBC70005EB800090F890100129E1
:1034F00002D00220BDE8F8830621297380F89010DD
:10350000A5F8FA7039462046009600F089F8D4F8FC
:10351000C48340F271204FF00109464309E0D4F81A
:10352000C413A1EB0800B0EB061F0CD894F82003DD
:1035300048B139462046FFF77DFF0128EFD085F8D6
:103540000C900020D6E785F80C90D2E72DE9F041E9
:103550001546D0F87C2302270026D4694FF00108D5
:1035600094F85220012A02D0022A56D126E02420C3
:103570008022E06584F860200A2284F86220C4F882
:103580006360C4F86760A4F86B60122284F863205B
:10359000490184F8641084F8656084F8666084F8F2
:1035A000670084F86860022084F8508084F8520034
:1035B00004F110000127C4F88C002EE0FFF702FC94
:1035C00007002AD122212846FCF744FED4F88C00BB
:1035D000007800F01F006870D4F88C000078400973
:1035E0002870D4F88C004078000602D585F8028057
:1035F00000E0AE7054F88C0F10228168C5F80310FB
:10360000C068C5F80700216805F10C001031FCF70F
:1036100008FE2068006AC5F81D003846BDE8F08144
:103620002DE9F041154602461F46D2F87C330220B0
:10363000069EDC6994F85230012B06D0022B2DD166
:10364000BDE8F0411046FFF7BDBBB4F8980010216B
:103650007043E065802084F860000A2084F86200EE
:1036600004F16300FCF7F6FD282084F86300280EBF
:1036700084F86500280C84F86600280A84F867003E
:1036800084F86850300A84F86A0084F86B6001207E
:1036900004F8500F0220A0700120E763BDE8F0811C
:1036A00070B51646D0F87C230125D46994F85220D1
:1036B000012A02D0022A2ED11AE00820E0658020DB
:1036C00084F860000A2084F86200102104F163008D
:1036D000FCF7C0FD252084F86300012084F8500029
:1036E000022084F8520004F11000C4F88C0012E0AB
:1036F000FFF768FB05000ED154F88C0F4188427823
:1037000049BA007862F31F4141EA006030602068E6
:10371000C08840BAB080284670BD70B515460246D4
:103720000E46D2F87C130220CC6994F8521001297D
:1037300014D0022911D131461046FFF743FB00286F
:103740000BD154F88C1F897801F00F012970216882
:10375000097B69702168497BA97070BD0E258020A6
:10376000E56584F860000A2084F86200102104F105
:103770006300FCF76FFD032084F86300700184F898
:103780006400002084F8650084F8660084F86750BF
:1037900084F86800012084F85000022084F8520068
:1037A00004F11000C4F88C00012070BD70B5024611
:1037B0000220D2F87C33DC6994F85230012B06D019
:1037C000022B18D1BDE870401046FFF7FBBA002568
:1037D000E56584F860500A2084F86200102104F145
:1037E0006300FCF737FD84F86350012004F8500FA4
:1037F0000220A070012070BD2DE9F041154602465F
:103800001F46D2F87C330220069EDC6994F85230C1
:10381000012B06D0022B2DD1BDE8F0411046FFF759
:10382000D1BAB4F8980010217043E065002084F804
:1038300060000A2084F8620004F16300FCF70AFDCE
:103840002A2084F86300280E84F86500280C84F888
:103850006600280A84F8670084F86850300A84F803
:103860006A0084F86B60012004F8500F0220A070F9
:103870000120E763BDE8F08100207047D0F87C2389
:103880000078D2690B2808D101EB810000EBC10060
:1038900002EB800090F8910008B1002070470120F1
:1038A00070472DE9F8430446D0F87C03089E0F4684
:1038B000C56994F8200360B120780B2809D107EB83
:1038C000870000EBC70005EB800090F890100129FD
:1038D00002D00220BDE8F8830721297380F89010F8
:1038E000A5F8FA70394620460096FFF785FFD4F810
:1038F000C48340F271204FF00109464309E0D4F837
:10390000C413A1EB0800B0EB061F0CD894F82003F9
:1039100048B139462046FFF78DFD0128EFD085F8E4
:103920000C900020D6E785F80C90D2E7FEB508AFE2
:1039300097E870008DE87000FFF7D6F90020FEBD13
:10394000002211B1D0F8803313B102221046704723
:103950000123C0F88033C0F87813F7E7024600204F
:1039600092F83C338B4202D982F82413704702202C
:10397000704710B50446FFF7E0F901212046FFF734
:1039800057F9002010BD000001290AD0054802297E
:1039900006D0042903D0052903D1032100E0012129
:1039A00001707047050000200020704730B58DB0D1
:1039B0001546012449B1012909D0022910D0032953
:1039C00018D004240DB0204630BD0024FAE701468B
:1039D0006A460E48FFF736FB0028F3D1019813E042
:1039E00001466A460948FFF72DFB0028EAD1BDF8D9
:1039F000080009E001466A460448FFF723FB002857
:103A0000E0D1BDF80800400A2860DEE7E0000020B1
:103A100030B58FB0054600930B46014601240C4893
:103A2000FFF74FFD68B101AA29460948FFF70AFBD5
:103A30009DF81100042806D0282804D03A2803D184
:103A400001E0002400E003240FB0204630BD000058
:103A5000E000002010B5014601240348FFF70EFFE7
:103A600000B10024204610BDE000002030B58FB02A
:103A7000054600930B46014601240E48FFF711FF4F
:103A800078B101AA29460B48FFF7DCFA9DF811002E
:103A900004280AD0272806D0282806D03A2805D19D
:103AA00003E0002402E0022400E003240FB02046DB
:103AB00030BD0000E000002070B5044606990A9E63
:103AC000049D0D98012916D0E06840F04000E060A8
:103AD000204600F02BF8A16B1EB321F48031A163C6
:103AE000012D07D1A16841F00601A160A16841F054
:103AF0002001A16070BDA16B21F48031A163E16858
:103B0000094A1140E160E16821F44011E1600128B7
:103B100003D1E06840F48010E060204600F006F831
:103B2000DEE741F48031DAE7BFFFBDFF01220C4937
:103B300002E0521C8A420BD80369002BF9DA0269B1
:103B400042F001020261012204E0521C8A4201D9C2
:103B5000032070470369DB07F7D10020704700009E
:103B6000400D0300816821F0010181600020704751
:103B700000EB4110064AC0F81025D0F8001521F0DE
:103B8000804141F00041C0F800150020704700005E
:103B90000000088008B5D0F8402422F02E020092E0
:103BA000D20405D4012909D1009941F4805103E0E0
:103BB00021B9009921F48051C0F84014002008BDBB
:103BC000816841F0010181600020704700211022CE
:103BD0000261054A491C914201D9032070470369DB
:103BE000DB06F7D400207047400D0300002220239D
:103BF00043EA811101610549521C8A4201D903201F
:103C0000704703699B06F7D400207047400D0300FE
:103C1000D0F8080480B27047406900F00100704796
:103C200000EB4111D1F800254FF47A73C2F38142C1
:103C30006AB1022A0BD0D1F8002542F08042C1F8C7
:103C40000025D0F8100410F47F0F2ED009E0D1F831
:103C5000002542F08042C1F80025C06A10F47F0FB1
:103C600007D0D1F8000540F00040C1F80005002061
:103C70007047D1F8000520F00040C1F80005D1F8E8
:103C8000000540F00040C1F80005D1F8000520F41F
:103C90000040C1F80005012002E0401C9842E6D82F
:103CA000D1F80025002AF8DBE1E7D1F8000520F083
:103CB0000040C1F80005D1F8000540F00040C1F80F
:103CC0000005D1F8000520F40040C1F800050120EE
:103CD00002E0401C9842CAD8D1F80025002AF8DB3F
:103CE000C5E700002DE9F0430026DDE9078500EB7C
:103CF0004114771EDDF82490C4F80875CDB1012D6C
:103D000032D0022D15D0032D27D00126D0F81874FB
:103D100001F00F0C012101FA0CF10F43C0F81874E7
:103D2000816941F00071816110062AD54FF400408D
:103D300028E040F29D47C4F80C75170605D500BF72
:103D4000D4F80C7547F4807718E0C76BFF05DDD514
:103D5000D4F80C7547F0600710E040F29D67C4F896
:103D60000C751706ECD4D1E740F22527C4F80C7582
:103D70001706CBD5D4F80C7547F4C077C4F80C758A
:103D8000C4E70020B8F1020F18D000214FF0FE5711
:103D900007EA83534FF4F04707EAC22213434FF474
:103DA000402202EA85421343C9F30A021343034344
:103DB0000B43C4F80035032D03D008E04FF4003165
:103DC000E4E7D4F8000540F00050C4F800053046A0
:103DD000BDE8F083D0F8140480B27047F8B54C7891
:103DE000C56B4FF48073ED054FF0000715D50D79C5
:103DF0009DB912B1012A07D00FE04D79012D0CD1E8
:103E00002146FFF7B5FE8CE000EB4415D5F80C65B4
:103E100026F06006C5F80C654F710E695EB10D891C
:103E20002E44761EB6FBF5F6B6B29E4204D91E4667
:103E30002B020B6100E00126CB78CBB30B897343D7
:103E4000C1F810306FF06045C3F3120305EAC645B0
:103E50002B438D7A4FF0C04606EA45752B4300EBA5
:103E600044140546C4F8103512B1CB68C4F81435B3
:103E7000D5F80834D4F8005543F3000325F0005575
:103E8000C4F80055D4F800555B1C45EA4373C4F8E8
:103E90000035D4F80055244B1D601D6825F0804581
:103EA0001D60CD78002D1D6805D045F4004504E067
:103EB000FFE70B69C6E725F400451D601D6845F066
:103EC00000451D601B68C4F8003552BBCA7842BB70
:103ED0000A6932B3CB7933B1012B0FD0022B02D058
:103EE000032B17D10AE0D21CC36AC2F38F029BB224
:103EF00093420FD2826942F020020AE0D21CD0F82D
:103F00001034C2F38F029BB2934203D2826942F013
:103F10008062826100970A8A93B24A78C96800F089
:103F2000F4F80020F8BD0000080000202DE9F04161
:103F30000025DDF8188017460446C0F8005E806B47
:103F400040F40010A063A06B20F40020A063A06BDD
:103F500020F48020A063E06BC00501D5012B04D0C4
:103F6000D4F8000420F0040103E0D4F8000440F089
:103F700004012046C4F800141021FFF737FE204644
:103F8000FFF724FE0020461E07E000BF04EB4011AF
:103F9000C1F80865C1F80C55401C8742F6D80121CC
:103FA0002046FFF7F7FDC820FCF710FBA56166610E
:103FB000E06BC00506D54FF4007060620C48A0624B
:103FC0000C4804E0802060620B48A0620B48C4F8F3
:103FD0000001B8F1000F03D1A06940F01000A0610A
:103FE000A06907490843A0610020BDE8F0810000F6
:103FF000000200010003E00080006000E0004000DB
:10400000080020A3D0F8002422F00302C0F8002406
:10401000D0F8002401F003031A43C0F8002401295A
:1040200002D0022903D006E04BF6803101E041F2D4
:104030007071C0F80414002070474169806908401D
:104040007047D21C10B59308002200F5805002E0A2
:104050000468521C10C19A42FAD3084610BD10B52C
:10406000C26822F0C042C260012902D029B10120F9
:1040700010BDC16841F0005102E0C16841F08041CB
:10408000C1603220FCF7A2FA002010BD30B5044612
:104090008068002520F00100A06010212046FFF775
:1040A000A5FD2046FFF792FD5FF0000004EB4011F4
:1040B000D1F8002522F0802242F08042C1F800258C
:1040C000401C0F28F2D900204FF47A7304EB401102
:1040D000D1F8002522F4004242F04042C1F8002508
:1040E0006D1C9D4203D8D1F80025002AF8DB401C46
:1040F0000F28EBD94FF0FF30C4F814046061A068BA
:1041000040F00100A060002030BD10B5029C64B9F1
:10411000DB1C9C0800EB0230002300F5805002E01D
:1041200004C902605B1CA342FAD3002010BDFEE765
:104130000FB4084B10B504A902AA039800F02CF89C
:10414000044602A9002000F058FA204610BC5DF891
:1041500014FB0000FB4500080907090E002804DBDA
:1041600000F1E02080F80014704700F00F0000F12B
:10417000E02080F8141D704702E008C8121F08C133
:10418000002AFAD170477047002001E001C1121FD8
:10419000002AFBD1704700002DE9FF4F8DB00F467C
:1041A0000546002606E025280BD0DDE90F129047D2
:1041B0006D1C761C28780028F5D111B03046BDE87A
:1041C000F08F0024A246A1460122EC4900E00443FE
:1041D00015F8013F203B02FA03F00842F7D1287896
:1041E0002A2810D06FF02F022878A0F13001092979
:1041F00014D80AEB8A0102EB410144F0020400EBFF
:10420000010A6D1CF0E701CF5FEA000A03D544F410
:104210000054CAF1000A44F002046D1C28782E28CC
:1042200017D115F8010F44F004042A280ED06FF0BE
:104230002F022878A0F1300109290AD809EB890159
:1042400002EB410100EB01096D1CF2E757F8049BFA
:104250006D1C28786C280FD006DC4C2817D06828F5
:104260000DD06A2814D104E0742810D07A280FD118
:104270000DE044F400140AE044F4801401E044F436
:1042800040146978814202D104F580146D1C6D1CC4
:104290002A786E2A1FD00CDC632A31D004DC002A75
:1042A0008BD0582A11D1A3E0642A68D0692A0CD196
:1042B00065E0732A2ED004DC6F2A73D0702A04D1F3
:1042C0009BE0752A6FD0782A6ED01046DDE90F1278
:1042D0009047761C50E1C4F30250022806D0032810
:1042E00009D0042801CF09D0066045E101CFF117BC
:1042F000C0E9006140E101CF06803DE106703BE18D
:1043000017F8040B8DF8000000208DF80100EB4633
:10431000012003E057F804BB4FF0FF3061074FF076
:10432000000102D40DE008F10101884649450FDA89
:104330008045F8DB1BF808100029F4D108E008F1EB
:10434000010188468142FADB1BF808100029F6D1EA
:10435000DDE90F23AAEB08008146214600F036F97B
:10436000304400EB080604E0DDE90F121BF8010BF6
:104370009047B8F10108F7D221464846F7E00A21F4
:10438000C4F302534FF0000B0891022B04D001CF6D
:10439000C117032B09D00AE0FF1D27F00707F7E834
:1043A000020108E032E01FE020E000B2C117042B58
:1043B00001D140B2C117031E71F1000307DA4FF0BB
:1043C000000CD0EB0C006CEB01012D2302E0230567
:1043D00004D52B238DF82430012303E0E30701D01B
:1043E0002023F7E7984658E00A2110E010210EE05C
:1043F00010204FF0000B08900CE010214FF0000B44
:1044000044F004044FF00809089103E008214FF03C
:10441000000B0891C4F30253022B04D001CF0021FA
:10442000032B06D006E0FF1D27F00707F7E802017F
:1044300003E080B2042B00D1C0B24FF00008230784
:104440002BD5702A07D0DDF820C08CF0100C5CEA68
:104450000B0C05D00EE040238DF82430012308E03A
:1044600050EA010306D030238DF824308DF8252042
:1044700002239846DDF820C08CF0080C5CEA0B0C97
:104480000BD150EA010301D1630706D530238DF823
:1044900024304FF00108A9F10109582A04D038A2AC
:1044A0000B9208AA0A920BE03AA2F9E75B46089A37
:1044B000FBF786FE0B9B9B5C0A9A521E0A921370B6
:1044C00050EA0102F2D10A98ADEB000000F1200B96
:1044D000600702D524F4803401E04FF00109D9458A
:1044E00002DDA9EB0B0000E0002000EB0B014144D2
:1044F0000890AAEB010AE00306D4DDE90F23214668
:10450000504600F063F806444FF0000908E009A99E
:1045100011F80900DDE90F12904709F10109761C35
:10452000C145F4DBE0030CD5DDE90F2321465046FD
:1045300000F04CF8064404E0DDE90F12302090470B
:10454000761C0899481E08900029F5DC08E00A98B6
:104550000A990078491C0A91DDE90F129047761CF0
:10456000BBF10001ABF1010BF1DC21465046DDE966
:104570000F2300F019F806446D1C1BE60928010002
:1045800030313233343536373839616263646566C9
:10459000000000003031323334353637383941428B
:1045A00043444546000000002DE9F0410446002543
:1045B0001E461746880404D405E039462020B0473B
:1045C0006D1C641EF9D52846BDE8F0812DE9F04147
:1045D000044600251E469046C80301D5302700E05A
:1045E0002027880404D505E041463846B0476D1CB5
:1045F000641EF9D52846BDE8F0810A68531C0B609B
:10460000107070472DE9F04706464868D718DDF866
:10461000208015460C464FF01709B84204D3E068D5
:10462000984201D3206830B93168C1F814903068DD
:10463000016830468847A069A84203D82169084428
:10464000B84220D2A06A30B931684720486130684A
:10465000016830468847606A30B101222146304601
:1046600002F0BCFA00206062A069A84201D2A561F4
:1046700004E02069381A00D50020A06100222146FC
:10468000304602F0ABFAE069B84225D2A8420DD21A
:10469000B8F1000F08D03168C1F814903068016893
:1046A00030468847284604E0284603E0B8F1000F6A
:1046B00000D0E761216AD9B1A1684FEAC119A169A7
:1046C000461A7F1A06E02068494650F82600FBF794
:1046D000C1FD761CBE42F6D3B8F1000F01D0012017
:1046E0006062A1692068691A00EB8100BDE8F0876B
:1046F000B8F1000FF3D13168C1F814903068016847
:1047000030468847EDE72DE9F04706464868D71858
:10471000DDF8208015460C464FF01709B84204D347
:10472000E068984201D3206830B93168C1F814902C
:104730003068016830468847A069A84203D82169DB
:104740000844B84220D2A06A30B931684720486195
:104750003068016830468847606A30B101222146DE
:10476000304602F076FA00206062A069A84201D2C9
:10477000A56104E02069381A00D50020A06100225C
:104780002146304602F065FAE069B84224D2A842D8
:104790000DD2B8F1000F08D03168C1F8149030681C
:1047A000016830468847284604E0284603E0B8F10F
:1047B000000F00D0E761216AD1B1A169D4F8089057
:1047C000461A7F1A06E02068494650F82600FBF793
:1047D00041FD761CBE42F6D3B8F1000F01D0012096
:1047E0006062A1692068691A00EB8100BDE8F0876A
:1047F000B8F1000FF3D13168C1F814903068016846
:1048000030468847EDE72DE9F0478A4681464668FD
:10481000D0014FF6F071B1FBF0F41D461746002CA5
:1048200008DCD9F8000048214161D9F8000001688E
:1048300048468847AC4200DB2C46AA005146484611
:10484000346500F0E7F88046002614E0A81BA0427B
:1048500000D8044604FB07F0C2015146484600F068
:1048600062F8210007D048F8260000EBC710491E67
:1048700006F10106F7D1AE42E8D34046BDE8F08725
:104880002DE9F0410546D0F8E071006F00244600A4
:10489000361D09E06868324601214368284698477A
:1048A00007EB8401641C4864A86FA042F2DCBDE8F9
:1048B000F0812DE9F0470446D0F844A1D0F8BC714E
:1048C000406AC20060680121036820469847B863C7
:1048D000616A002500EB8100F863D4F8D8601DE020
:1048E000B16AF0684843D4F8441190FBF1F860686D
:1048F0000AF1040108FB01F903684FEAC90201212A
:104900002046984700EB8801B86B40F8251001EB72
:104910008900F96B41F825006D1C5836606AA84281
:10492000DEDCBDE8F0872DE9F047064647684FF624
:10493000F07015468846824203D9032130460BF0B9
:104940006DF815F0070002D0C0F108000544B8F179
:10495000020F09D331680F2048613168C1F818800F
:10496000306801683046884705F1100189463046B5
:1049700004F078FE040003D1042130460BF04EF819
:10498000F96C01EB0900F86407EB8800C16BC4E91E
:1049900000150021A160C46304F11000BDE8F08798
:1049A0002DE9F0478146466817464FF6F070B0FB98
:1049B000F7F41D468A46002C08DCD9F8000048218F
:1049C0004161D9F80000016848468847AC4200DBE5
:1049D0002C46AA0051464846346500F01BF8804634
:1049E000002612E0AA1BA24200D9224614467A43AE
:1049F00051464846FFF797FF220006D048F82600A8
:104A00003844521E06F10106F8D1AE42EAD34046C0
:104A1000BDE8F0872DE9F0478046D0F804904FF6C6
:104A2000F07016460D46824203D9012140460AF035
:104A3000F5FF16F0070002D0C0F108000644022D71
:104A40000BD3D8F800000F214161D8F80000856130
:104A5000D8F8000001684046884709EB850A002421
:104A6000DAF8340004E08168B14204D204460068F8
:104A70000028F8D100E0E0B906F110072CB31A487D
:104A800050F82550C7F58030A84200D20546791964
:104A9000404604F0EAFDD8B1D9F84C107A190A441E
:104AA0000021C9F84C200160416071198160BCB1DE
:104AB0002060426800F11001114432444260826873
:104AC000921B82600846BDE8F08707480838D7E7A0
:104AD0006D08322DDBD2022140460AF09FFFD6E757
:104AE000CAF83400E5E70000308A01082DE9F041FA
:104AF000D0F8D04107460D464FF40046E06826E066
:104B00002069401E20611FD5D7F8B40108B10020EC
:104B10000EE0384602F071FCFF2809D1384602F059
:104B20006CFCFF28FAD010B1C7F8B401EFE7FF2002
:104B3000A16840EA0120A06020690830206103D507
:104B4000401C206100D1E660E0684000E060B042B7
:104B5000D6DB2878164900F07F0251F8221001F0C8
:104B6000FF0C0912CFB20B12E168C91AE160227C76
:104B7000D4F808E001FA02F2964506DBAEEB020239
:104B8000A2609942E3600CDB03E0B1420DDA994286
:104B900007DA00F0800181EA0C01297080F08000C2
:104BA00003E000F0800179402970C011BDE8F08178
:104BB0006086010870B50546D0F8DC4140684FF4C6
:104BC000806632460368012128469847A0606868DD
:104BD00032460121036828469847E06068683246FB
:104BE0000121036828469847206168683246012100
:104BF000036828469847002160616FF07F007201CA
:104C0000104BA568434303F500431B1445F82130BE
:104C10004EF2D1234343E56802EB43031B1445F8EE
:104C20002130094B2569434345F82130074B65691D
:104C3000434302EB430345F82130401C491CFF2944
:104C4000DEDD70BDE96601002E49FFFFF3D3FFFFF3
:104C500070B50546D0F8D84140684FF480663246BA
:104C6000036801212846984720616868324601217F
:104C700003682846984760616868324601210368E6
:104C800028469847A0616868324601210368284693
:104C900098470021E0616FF07F007201104B256999
:104CA000434303F500431B1445F821304EF2D12352
:104CB0004343656902EB43031B1445F82130094B5C
:104CC000A569434345F82130074BE569434302EBAF
:104CD000430345F82130401C491CFF29DEDD70BD2F
:104CE000E96601002E49FFFFF3D3FFFF2DE9F04FE6
:104CF0008B46D0F8E0119A4696468E690021D0F88E
:104D00007090876F19E000BF5BF821405EF821507A
:104D10005FEA090010D000231A4607E056F822C0C7
:104D200014F8018B521C1CF808C06344BA42F5DB2E
:104D300005F8013B401EEED1491C5145E4DBBDE8BE
:104D4000F08F2DE9F04F8A46D0F8E011934699464E
:104D500089690022046FD1E901650F6818E05AF8EB
:104D600022005BF82230210011D010F801CB491E3F
:104D700010F8018B17F80CC016F80880C44410F81E
:104D8000018B15F80880C44403F801CBEDD1521C07
:104D90004A45E4DBBDE8F08F2DE9F74FD0F8E0217C
:104DA00086B092690592D1E9003404948C6803942A
:104DB000CC6800220294D1E904E7934692469146DA
:104DC0002CE0039926E0059C8D0105EB4E0554F877
:104DD00023402E19042505EBC3050195022505EB9B
:104DE00081057446009512E036F8025B75B1DDF876
:104DF00004C02A440CFB05BBDDF800C00CFB05AA6F
:104E00004FF0040C0CEBC40C0CFB0599641CBC4269
:104E1000EADD491C029CA142D5DD5B1C04998B4252
:104E2000CFDD0BEB620150F8883F91FBF2F11C687B
:104E3000089BE1540AEB6201036891FBF2F15C68A4
:104E4000089BE15409EB620191FBF2F10068826872
:104E50000898115409B0BDE8F08F2DE9F04F85B0E6
:104E6000044600260DF1040BD0F8C05114E004EB09
:104E700086000121D0F854010091D4F89420C36831
:104E800040685A4305EB8000816C6068076A2046E1
:104E9000B8474BF82600761CD4F85001B042E6DC47
:104EA000A8693FE0686934E00026304623E004EB5F
:104EB0008001D1F854210021D2F8388008FB09F88C
:104EC00015E05BF8207001EB0A0357F8233003EB81
:104ED000C817002306E005EB860C5B1C761CCCF89B
:104EE00020708037D2F838C09C45F4DC491CD36B65
:104EF0008B42E6DC401CD4F850118142D7DCD4F858
:104F0000D00105F12001426820469047F0B109F137
:104F10000100D4F8641181464945C5D80020686174
:104F20000AF10100E96982465145BBDCD4F89400DE
:104F3000401CC4F89400D4F8481188420AD2204694
:104F40000BF097FF032005B0BDE8F08FC5E9059A87
:104F50000020F8E7D4F8C801C1682046884704203B
:104F6000F1E700002DE9F041D0F8C8510446686926
:104F700010B10220BDE8F08102274FF0240800BFE5
:104F8000D4F8CC014168204688470600F2D0012EB3
:104F900011D0022EEED101206861A86958B3D4F86F
:104FA000CC01006930B321683D2048612068016868
:104FB0002046884727E0A86960B1012802D1204631
:104FC00003F0ACF9D4F8500110B10020A8611AE048
:104FD000AF61D5E7286930B92168C1F8148020682D
:104FE000016820468847D4F850010028C8D02046E0
:104FF0000BF058FF07E0D4F89810D4F890008142E5
:1050000001DDC4F898003046B4E700002DE9F84F00
:105010008046D0F8E05190F85800012812D04FF0A7
:10502000000A5046E861D8F80400D8F878300AF54C
:105030008072846801214046A047A8616869002405
:10504000009045E04FF4FF7A0120EBE705EB840088
:105050000099D0F820B0BAF1000F91FBFBF000905E
:1050600005D0A86950F82410FF3140F82410A86931
:105070004FF00009ABF1010350F824604A46214685
:1050800040460AF0A1F9002709E000BF09F101023A
:105090009146ABF10103214640460AF095F987425B
:1050A000F4DC009A09FB02F1F1557F1CFF2FF6DDBD
:1050B000BAF1000F0BD00120321A3178117031187B
:1050C00096F8FF20401C81F8FF20FF28F4DD641CC7
:1050D000D8F87800A042B9DCBDE8F88F2DE9F05F80
:1050E000D0F8E061044606F120010BF06DFD0546A5
:1050F000A06F032814D02168612048612068856171
:10510000206801214268204690476068A36F2A46C4
:10511000876801212046B8478346AE46002035E027
:1051200020688561316AC161716A0162B16A416258
:10513000216860204861E3E706EB8900D0F820A0F1
:1051400000209EFBFAF31CE0AAF10101C0EB002253
:1051500001EBD17702EB670292FBF1F200FB03F166
:10516000D7B20BE0002206E05BF829C001EB020891
:10517000521C0CF808709A42F6DB7144A942F1DB2C
:10518000401C5045E0DB9E4609F10100A16F8146BD
:105190004945D1DCC6E904B5BDE8F09F2DE9F05FD3
:1051A00082460024D0F8E09140E000BF09EB840B78
:1051B0000020DBF820500AE009EB8001096AA942CF
:1051C00004D109EB8000406B18B12CE0401CA042D8
:1051D000F2DBDAF8041050464FF480620B680121CC
:1051E00098476B020022DFF85080FF27A3F5007379
:1051F000002108EB021600EB821C755C6D4207EB88
:105200004505D5EB052504D56D4295FBF3F56D42BB
:1052100001E095FBF3F54CF82150491C1029ECDB1B
:10522000521C102AE4DB641CCBF83400DAF8780056
:10523000A042BBDCBDE8F09F508501082DE9F34F8B
:105240008146D0F8D071D0F8180197B030B1B86A63
:1052500020B948460BF06EF800287DD0786A002807
:105260007BD1CDF82C90D9F8180014220168079151
:1052700040680890D7E9025407F110010FA8149173
:10528000FAF7CFFF002029E1189807EB880A082CCD
:1052900050F828001590DAF860600DDA00232246F5
:1052A000294607A804F044F9002855D0DDE909543F
:1052B000082C01DA012010E0A4F1080045FA00F002
:1052C000C1B206EB8100D0F8900028B1241A701802
:1052D00090F8900400900CE009200090334622469C
:1052E000294607A804F0C4F9009000287EDBDDE918
:1052F0000954DAF8B0000126DAF888B05FEA000A4B
:10530000009874D0E8B1844209DA0346224629465F
:1053100007A804F00DF900281ED0DDE909547C4AE5
:105320000099009B009852F8211002EB8302241A86
:1053300045FA04F052F8042C0840824200DB401A7F
:10534000009009EB88000FA9D0F8700101EB8001F3
:1053500000984A68104401E082E0D4E04860159962
:1053600008805BE0082C0DDA00232246294607A8B6
:1053700004F0DEF8002873D0DDE90954082C01DAC6
:1053800001200FE0A4F1080145FA01F0C0B20BEBD7
:105390008001D1F8901021B15844641A90F890041B
:1053A0000BE0092000905B462246294607A804F03E
:1053B0005FF900286EDBDDE90954011110F00F00E0
:1053C000009027D00E44844209DA0346224629463B
:1053D00007A804F0ADF800285DD0DDE90954009875
:1053E0004B49241A45FA04F0009A01E052E018E013
:1053F000009B51F8222001EB8301104051F8041C5E
:10540000814200DB801A434951F82620159921F882
:10541000120002E00F295FD10F36761C5645A1DB42
:1054200058E068B1844209DA03462246294607A8B3
:1054300004F07EF800282ED0DDE909540098241AE3
:10544000082C0EDA00232246294607A804F070F83B
:10545000002820D0DDE90954082C02DA012010E0F0
:1054600019E0A4F1080045FA00F0C0B20BEB80018E
:10547000D1F8901021B15844641A90F890040FE0CC
:10548000092000905B462246294607A804F0F0F860
:10549000002803DA002019B0BDE8F08FDDE90954D7
:1054A000011100F00F005FEA000A0FD00E445445CE
:1054B00009DA03462246294607A804F039F80028ED
:1054C000E9D0DDE90954A4EB0A0402E00F2903D175
:1054D0000F36761C402EB3DB08F10100D9F86C11B1
:1054E000804641453FF7D0AED9F8180007991422FD
:1054F0000160D9F8180008994160C7E902540FA962
:105500001498FAF78EFEB86A401EB8620120C2E70E
:1055100050840108388A01082DE9F34F0546D0F878
:10552000D061D0F8180185B038B1706B10B9284639
:105530000AF02CFF706B401E70633069401C5BD01A
:10554000D5F8AC0101900020EDE0069951F8280053
:10555000009005EB8800D0F8700105EB800106EBA8
:105560008009D1F854B1DBF8147006EB8701039180
:10557000896BD9F824000C1821462846FFF7B6FAA3
:1055800088B1611C2846FFF7B1FAA41C02902044A0
:10559000824601462846FFF7A9FA040014D0039872
:1055A000806B143009E00020C9F8240048E0640052
:1055B000B4F5004F15D00AF1010082460146284695
:1055C000FFF794FA0028F2D1E919012091F8E820B8
:1055D00000FA02F2B4EB620F0FDA0020C9F82400DF
:1055E00019E0296875204FF0FF344861286821468A
:1055F00042682846904734619BE091F8F810884053
:10560000B4EB600F029801DD0C2100E0042101EBF6
:105610008001C9F8241027460AF10E0A05E0514618
:105620002846FFF763FA00B127436410F7D10298C8
:105630007F1C00B17F42D9F81400C119C9F81410B9
:105640000099B9F814000880D5F8B001A0B3DBF8D0
:105650001800002706EB800BCDF80800DBF8781067
:1056600007EB47000C1821462846FFF73FFA18BB06
:10567000611C28467F1CFFF739FAF0B106F1B8012A
:105680002846FFF733FAA41C0390A2462146284679
:10569000FFF72CFA040028D051462846FFF726FAD7
:1056A00018B3029864002844DBF8781090F80801D9
:1056B000B84208DBBD2007E033E0D5F8B001E41CB8
:1056C000B842D5DC8DE7D920084482464FF4004922
:1056D00005E064004C4584D00AF101008246014691
:1056E0002846FFF703FA0028F3D1A1460AF10E0A73
:1056F00006E051462846FFF7F9F908B149EA0409DE
:105700006410F6D1039909F1010001B140420199F9
:1057100051F82720009921F81200D5F8B001B842BD
:105720009CDC08F10100D5F86C11804641453FF73B
:105730000CAF07B00120BDE8F08F00002DE9F04F5D
:105740000646D0F8D041D0F8180189B00F4630B1E4
:10575000A06A20B930460AF0EDFD002843D0606A07
:10576000002870D1D6F89C91D6F8A4010790D6F8FD
:10577000AC01069025690DB16D1E8CE00596B069EF
:105780000168019140680290D4E9021238680890DB
:10579000D4F83CA0D6F8988173E0082A0BDA0023ED
:1057A00001A803F0C5FE00281DD0DDE90312082A78
:1057B00001DA01200FE0A2F1080341FA03F0C0B2C0
:1057C0000AEB8003D3F8903023B15044D21A90F8FA
:1057D00090040DE009200090534601A803F048FF13
:1057E000002803DA002009B0BDE8F08FDDE90312DC
:1057F000071100F00F005FEA000B25D04744584620
:105800005A4507DA034601A803F092FE0028EAD0C1
:10581000DDE90312DFF88CC0A2EB0B0241FA02F0C3
:105820005CF82B300CEB8B0C18405CF804CC8445F6
:1058300000DBC01A079B9840069B53F827C0089BC3
:1058400023F81C001BE027E00F2F16D00125BD40D8
:105850008FB1BA4207DA3B4601A803F069FE00287F
:10586000C1D0DDE903120F4BD21B41FA02F053F80D
:105870002730184005446D1E05E008F10F0707F1B9
:105880000108C84589DDB36901981860B3690298B9
:105890005860C4E902122561A06A401EA06201207E
:1058A000A1E70000508401082DE9FE4F0446D0F81E
:1058B000D071D0F818010D4638B1786B10B9204678
:1058C0000AF064FD786B401E78633869401C2CD068
:1058D000D4F8AC01029028680190D4F854014FF03C
:1058E000FF3BD4F89861D0F818A071E007EB8A0864
:1058F00006EB4600D8F87810C01E0D182946204641
:10590000FFF7F4F8002867D110E0D4F89C01ED1CF3
:10591000761CB0420ADA216875205D46486120682D
:1059200059464268204690473D6155E0691C204633
:10593000FFF7DCF80028E8D007F1B8012046FFF7B0
:10594000D5F8AD1C0090A94629462046FFF7CEF8B1
:10595000050021D049462046FFF7C8F8E0B104EB26
:105960000A006D0090F80801D8F87810B04201DB09
:10597000BD2000E0D920084481464FF4004805E0EE
:105980006D004545C7D009F101008146014620461A
:10599000FFF7ACF80028F3D1A84609F10E0906E09C
:1059A00049462046FFF7A2F808B148EA05086D10FD
:1059B000F6D1009908F1010001B1404294F8A41118
:1059C0008840029951F826200199761C21F812008E
:1059D000D4F89C01B04289DA0120BDE8FE8F0000B6
:1059E0002DE9F04F0646D0F8D071D0F81801D5B0A7
:1059F0000D4630B1B86A20B930460AF09BFC002849
:105A00007CD0786A00287AD1D6F89C01519096F81B
:105A1000A411012088404C904FF0FF3088404E90F8
:105A2000D6F8AC014B960490B06901684791406884
:105A30004890D7E903405FEA0008D7F808A0286833
:105A40004F90F86B03904FF000005290D6F89851A9
:105A50007ED0F3E0082C0EDA00232246514647A8F8
:105A600003F066FD002874D04A9CDDF824A1082CC0
:105A700001DA012011E0A4F108004AFA00F1C8B2ED
:105A8000039901EB8001D1F8901029B1641A0399B0
:105A9000084490F890040CE00920009022465146FA
:105AA00047A8039B03F0E4FD002852DBDDF824A1A6
:105AB0004A9C4FEA201910F00F00539023D0012880
:105AC00008D031687920486130684FF0FF31426872
:105AD00030469047012C0ADA01232246514647A856
